:020000040800F2
:1000000000000824614F0008794B00087F4B00086E
:10001000854B00088B4B0008914B00080000000046
:10002000000000000000000000000000974B0008E6
:10003000A54B000800000000B34B0008C14B0008AE
:10004000B14F0008B14F0008B14F0008B14F000890
:10005000B14F0008B14F0008B14F0008B14F000880
:10006000B14F0008B14F0008B14F0008B14F000870
:10007000B14F0008B14F0008B14F0008B14F000860
:10008000B14F0008B14F0008B14F0008B14F000850
:10009000B14F0008B14F0008B14F0008B14F000840
:1000A000B14F0008B14F0008B14F0008B14F000830
:1000B000B14F0008B14F0008B14F0008B14F000820
:1000C000B14F0008B14F0008B14F0008B14F000810
:1000D000CD4B0008E14B0008214C0008B14F00084F
:1000E000B14F0008B14F000800000000B14F0008F8
:1000F000B14F0008B14F0008B14F0008B14F0008E0
:10010000B14F0008B14F0008B14F0008B14F0008CF
:10011000B14F0008B14F0008614C0008314D000894
:10012000B14F0008B14F0008B14F0008B14F0008AF
:10013000B14F0008B14F0008B14F0008B14F00089F
:1001400000000000000000000000000000000000AF
:10015000B14F0008B14F0008B14F0008B14F00087F
:10016000B14F0008B14F0008B14F0008B14F00086F
:10017000B14F0008B14F0008B14F00080000000067
:10018000B14F0008B14F0008B14F0008B14F00084F
:10019000B14F0008B14F0008B14F0008B14F00083F
:1001A000B14F0008B14F0008B14F0008B14F00082F
:1001B000B14F0008B14F0008B14F0008B14F00081F
:1001C000B14F0008B14F0008B14F0008B14F00080F
:1001D000B14F0008B14F0008B14F0008B14F0008FF
:1001E000B14F0008B14F0008B14F0008B14F0008EF
:1001F000B14F0008B14F0008B14F0008B14F0008DF
:10020000B14F0008B14F0008B14F0008B14F0008CE
:10021000B14F0008B14F0008B14F0008B14F0008BE
:10022000B14F0008B14F0008B14F000800000000B6
:10023000B14F0008B14F000800000000B14F0008A6
:10024000B14F0008B14F0008B14F0008B14F00088E
:10025000B14F0008B14F0008B14F0008B14F00087E
:10026000B14F0008B14F0008B14F0008B14F00086E
:10027000B14F0008B14F0008B14F00080000000066
:10028000B14F0008B14F0008B14F00080000000056
:0802900000000000B14F00085E
:1002980010B5054C237833B9044B13B10448AFF3B8
:1002A80000800123237010BD4804002400000000D2
:1002B80030F8000808B5034B1BB103490348AFF3F6
:1002C800008008BD000000004C04002430F800083D
:1002D80053B94AB9002908BF00281CBF4FF0FF31A5
:1002E8004FF0FF3000F070B9ADF1080C6DE904CEA5
:1002F80000F006F8DDF804E0DDE9022304B07047F9
:100308002DE9F047089E0D4604460F46002B4AD1BA
:100318008A42944665D9B2FA82F343B102FA03FCE1
:10032800C3F120029F4020FA02F217439C404FEA93
:100338001C4E1FFA8CF5B7FBFEF1220C0EFB117751
:1003480042EA074201FB05F090420AD91CEB02027F
:1003580001F1FF3780F01C81904240F21981023987
:100368006244121AA4B2B2FBFEF00EFB102244EA59
:10037800024400FB05F5A5420AD91CEB040400F170
:10038800FF3280F00781A54240F2048164440238BC
:1003980040EA0140641B00211EB1DC400023C6E98D
:1003A8000043BDE8F0878B4208D9002E00F0ED80AD
:1003B8000021C6E900050846BDE8F087B3FA83F1D5
:1003C800002949D1AB4202D3824200F2F880841A54
:1003D80065EB030201201746002EE2D0C6E900476C
:1003E800DFE702B9FFDEB2FA82F3002B40F090801B
:1003F8008A1A4FEA1C471FFA8CFE0121B2FBF7F557
:1004080007FB1520220C42EA00420EFB05F0904241
:1004180008D91CEB020205F1FF3802D2904200F223
:10042800CB804546121AA4B2B2FBF7F007FB1022A4
:1004380044EA02440EFB00FEA64508D91CEB04045E
:1004480000F1FF3202D2A64500F2BB801046A4EBB1
:100458000E0440EA05409FE7C1F120078B4022FACD
:1004680007FC4CEA030C05FA01F420FA07F3FD40F7
:100478004FEA1C492343B5FBF9F81FFA8CFE09FB28
:1004880018551C0C44EA054408FB0EF5A54202FA6F
:1004980001F200FA01F00BD91CEB040408F1FF3A51
:1004A80080F08880A54240F28580A8F10208644463
:1004B800641B9DB2B4FBF9F309FB134445EA0444F9
:1004C80003FB0EFEA64508D91CEB040403F1FF3517
:1004D8006CD2A6456AD9023B644443EA0843A3FBAD
:1004E8000295A4EB0E04AC42C846AE4656D353D090
:1004F80056B1B0EB080264EB0E0404FA07F7CA40E1
:10050800CC401743C6E9007418460021BDE8F087BF
:10051800C3F1200102FA03FC20FA01F225FA01F1E5
:100528009D402A434FEA1C471FFA8CFEB1FBF7F0A7
:1005380007FB1015110C41EA054100FB0EF58D4231
:1005480004FA03F408D91CEB010100F1FF382FD29B
:100558008D422DD902386144491B92B2B1FBF7F59F
:1005680007FB151142EA014205FB0EF1914208D939
:100578001CEB020205F1FF3816D2914214D9023D54
:100588006244521A45EA004138E73146304608E7E6
:100598003946E6E61046FBE64845A9D2B9EB02081B
:1005A80065EB0C0E013BA3E74546EAE72B4694E7CB
:1005B8004046D1E7D0467BE7023D624432E7084631
:1005C8000AE76444023842E7704700BF80B582B04A
:1005D80000AF00237B809E4B1B78032B00F22E83F9
:1005E80001A252F823F000BF010600083F060008E8
:1005F8003B080008450B0008964B00221A60964BF2
:1006080000221A60954B00221A7028220021944873
:100618000FF0DEF82822002192480FF0D9F828229E
:10062800002191480FF0D4F8894B01221A708F4BA2
:1006380000221A7017E38A4B1B78012B40F0DF80E9
:10064800874B5B78172B00F09080172B00F3CB803B
:10065800032B02D0102B37D0C5E0844B01221A702F
:10066800834B1B88B3F5FA7F02D3794B00221A70AB
:100678007A4B1B78072B40F2D4800621784802F089
:10068800E3FD03461A467B4B1A80754BDB797B806A
:100698007B881B021AB2724B9B791BB213431BB2A5
:1006A8007B80744B1B887A889A4206D1684B022259
:1006B8001A70694B01221A6002E0654B00221A7019
:1006C8006A4B00221A70ACE0684B01221A70684B22
:1006D8001B88B3F5FA7F02D35D4B00221A70604B7A
:1006E8009A79654B1A70644B1B78002B00F09B803D
:1006F800614B1B780833594A1278934280F29380F1
:100708005A4B00221A705A4B00221A805A4B1B78F7
:100718009BB207339BB21946514802F095FD034638
:100728001A46544B1A80544B1B7808334C4AD35CF6
:100738007B807B881B021AB24F4B1B7807334849D2
:10074800CB5C1BB213431BB27B804A4B1B887A8855
:100758009A4206D13E4B02221A703F4B01221A6080
:1007680061E03B4B00221A705DE03D4B9A7A424BA8
:100778001A70414B1B78002B57D03F4B1B780B331B
:10078800364A1278934250DA344B1B789BB2023BBC
:100798009BB21946324802F057FD03461A46354BBC
:1007A8001A802E4B1B78013B2D4AD35C7B807B88BB
:1007B8001B021AB2294B1B78023B2949CB5C1BB29E
:1007C80013431BB27B802B4B1B887A889A4206D135
:1007D8001F4B02221A70204B01221A6025E01C4B85
:1007E80000221A7021E0214B01221A70204B1B882D
:1007F800B3F5FA7F1BD3164B00221A7017E0174B7C
:100808001B78002B00F01C82184B01221A70184B21
:100818001B88B3F5FA7FC0F013820D4B00221A70C3
:100828000EE200BF0CE200BF0AE200BF08E200BF10
:1008380006E2094B1B680A4AD35C172B00F0DA80E2
:10084800172B00F30D82032B18D0102B61D007E271
:1008580030330024481200244C1200245A12002479
:100868005C12002484120024403300240613002460
:10087800021300249033002492330024594B1B6840
:100888000133584A1360584B03221A70554B1B68A2
:10089800564AD35C9BB21B027B80524B1B680133C8
:1008A800504A13604F4B1B68504AD35C9AB27B88FE
:1008B80013439AB24C4B5A804A4B1B680133494A3E
:1008C8001360484B1B68494AD35C9BB21B027B8070
:1008D800444B1B680133434A1360424B1B68434A2D
:1008E800D35C9AB27B8813439AB23F4BDA803D4B74
:1008F8001B6801333B4A13603B4BDB88DBB25B0070
:10090800DAB2394B9A7202F04FFB394B03221A7054
:1009180013E1344B1B680133324A1360324B102207
:100928001A70304B1B68314AD35C9BB21B027B8028
:100938002C4B1B6801332B4A13602A4B1B682B4A2C
:10094800D35C9AB27B8813439AB2274B9A80254B83
:100958001B680133234A1360224B1B68234AD35C6C
:100968009BB21B027B801F4B1B6801331D4A13601F
:100978001C4B1B681D4AD35C9AB27B8813439AB2FE
:10098800194B1A81174B1B680133164A1360154B14
:100998001B68164AD25C144BDA72124B1B6801337F
:1009A800104A136000237B600FE00E4B1B685A1C33
:1009B8000C490A600D4AD15C0B4A7B6813440C331E
:1009C8000A461A707B6801337B60074BDB7A1A464C
:1009D8007B689342E9DB02F0E7FA054B03221A70C1
:1009E800ABE000BF4C120024343300245C12002416
:1009F80030330024934B1B680133924A1360924BA7
:100A080017221A708F4B1B68904AD35C9BB21B024B
:100A18007B808C4B1B6801338A4A1360894B1B68A7
:100A28008A4AD35C9AB27B8813439AB2864B5A801F
:100A3800844B1B680133834A1360824B1B68834ACB
:100A4800D35C9BB21B027B807E4B1B6801337D4AC3
:100A580013607C4B1B687D4AD35C9AB27B88134336
:100A68009AB2794BDA80774B1B680133754A136069
:100A7800754BDB88DBB25B00DAB2734B9A72714B51
:100A88001B68724AD35C9BB21B027B806D4B1B6850
:100A980001336C4A13606B4B1B686C4AD35C9AB287
:100AA8007B8813439AB2684B9A80664B1B68013364
:100AB800644A1360634B1B68644AD35C9BB21B0295
:100AC8007B80604B1B6801335E4A13605D4B1B687B
:100AD8005E4AD35C9AB27B8813439AB25A4B1A8106
:100AE800584B1B680133574A1360564B1B68574ACB
:100AF800D25C554BDA72534B1B680133514A136071
:100B080000237B600FE04F4B1B685A1C4D490A605D
:100B18004E4AD15C4C4A7B6813440C330A461A701F
:100B28007B6801337B60484BDB7A1A467B689342CB
:100B3800E9DB474B03221A7000BF91E0424B1B7858
:100B4800172B62D0172B00F38D80032B02D0102BAC
:100B580018D087E03F4B01221A703B4B1A783D4B67
:100B68005A70394B9A7A3B4B9A70374BDB88DBB219
:100B78000321184602F01EFB00F014FF344B00223C
:100B88001A705AE0334B01221A702F4B1A78314BE6
:100B98005A702D4B9B881B0A9BB2DAB22D4B9A7068
:100BA800294B9B88DAB22B4BDA70274B1B891B0A1F
:100BB8009BB2DAB2274B1A71234B1B89DAB2254B49
:100BC8005A71254B06221A80234B1B881946214847
:100BD80002F03AFB03461A46204B1A801F4B1B882B
:100BE800DAB21C4B9A711D4B1B881B0A9BB2DAB2F6
:100BF800184BDA71184B1B880233124A136000F045
:100C0800D1FE134B00221A7017E0124B01221A7002
:100C18000D4B1A780F4B5A700B4B9A7A0D4B9A70F2
:100C2800094BDB88DBB20321184602F0C3FA00F057
:100C3800B9FE074B00221A7000BF13E000BF12E094
:100C480000BF10E04C120024343300245C1200244E
:100C58003033002484120024943300249033002479
:100C680000BF00E000BF00BF0837BD4680BD00BF21
:100C780080B586B000AF0023FB730023BB8100233F
:100C8800FB8000237B810023BB804FF000033B6087
:100C980000237B72954B1B78032B00F2788601A208
:100CA80052F823F0BD0C0008FD0C0008B50E000832
:100CB8001D1000088E4B00221A608E4B00221A600D
:100CC8008D4B00221A70282200218C480EF080FDDE
:100CD800282200218A480EF07BFD2822002189481D
:100CE8000EF076FD814B01221A70874B00221A7094
:100CF80000F052BE854B1B78002B00F04A86834BD0
:100D080000221A70824B1B78032B02D0102B48D07C
:100D1800CAE07B4B01221A707D4B1A78784B5A70C7
:100D28007B4B5B881B0A9BB2DAB2754B9A70784B87
:100D38005B88DAB2724BDA70754BDB881B0A9BB2A0
:100D4800DAB26F4B1A71724BDB88DAB26C4B5A719C
:100D58000623FB80FB881946694802F075FA0346AA
:100D6800BB81FB88FB73FB7B5A1CFA731A46BB8951
:100D7800D9B2634B9954BB891B0A99B2FB7B5A1CA5
:100D8800FA731A46C9B25E4B9954FB7B594A1360F1
:100D9800604B00221A7000F01BFE544B02221A709E
:100DA80082E0574B01221A70594B1A78544B5A70EB
:100DB800574B9B881B0A9BB2DAB2514B9A70544B23
:100DC8009B88DAB24E4BDA70514B1B891B0A9BB2D7
:100DD800DAB24B4B1A714E4B1B89DAB2484B5A7137
:100DE8004B4BDA7A464B9A710723FB7300237B61DE
:100DF8000DE0FB7B5A1CFA731946454A7B6913447C
:100E08000C331A783E4B5A547B6901337B61404B53
:100E1800DB7A1A467B699342EBDBFB7BFB80FB8822
:100E28001946374802F010FA0346BB81FB7B5A1C6F
:100E3800FA731A46BB89D9B2314B9954BB891B0A3C
:100E480099B2FB7B5A1CFA731A46C9B22C4B9954B7
:100E5800FB7B284A13602F4B00221A7000F0B8FD64
:100E6800224B02221A702A4B5B7B042B1BD1284B86
:100E78009B8841F28832934215D100237B610CE0B4
:100E8800254A7B69002122F81310244A7B69134400
:100E980000221A707B6901337B617B69042BEFDDCB
:100EA8001F4B00221A8000BF00F073BD124B1B7845
:100EB800002B0AD0144B01221A701A4B1B88B3F569
:100EC800FA7F02D3094B00221A700C4B1B78012BB6
:100ED8002CD10A4B5B78032B03D0084B5B78102B83
:100EE80024D1114B00221A702FE000BF31330024A7
:100EF80050120024541200245B120024D41200243F
:100F0800AC120024683300240713002408130024BB
:100F1800343300246E0A0024441300243C130024B4
:100F280042130024041300246F0A0024864B5B78C4
:100F3800012B0AD1844B9B78032B03D0824B9B78DF
:100F4800102B02D1814B01221A70804B1B78013380
:100F58007D4AD35C032B0BD17C4B1B7802337A4A36
:100F6800D25C7A4B1B781344DBB205337B7203E007
:100F7800764B1B7808337B727B7A002B00F00B854D
:100F8800734B1B787A7A9A4200F20585714B0022DE
:100F98001A706E4B1B78002B0FD07B7A9AB26B4B72
:100FA8001B789BB2D31A9BB2023B9BB219466A4884
:100FB80002F04AF90346BB810EE07B7A9AB2634B92
:100FC8001B789BB2D31A9BB2023B9BB219465E4870
:100FD80002F03AF90346BB817B7A013B5A4AD35C5B
:100FE8007B817B891B021AB27B7A023B5649CB5C18
:100FF8001BB213431BB27B81BA897B899A4204D105
:10100800564B03221A7000F0C6BC544B00221A70CB
:1010180000F0C1BC4D4B1B7801334B4AD35C032B0A
:1010280004D0102B00F05D8400F0ACBC00237B6181
:10103800464B1B7803333B610FE0434A3B6913443B
:101048001978474A7B69134434330A461A707B6916
:1010580001337B613B6901333B613C4B1B780233B5
:10106800394AD35C1A467B699342E6DB3C4B5B8882
:1010780041F28832934235D9394B5B8841F2943238
:1010880093422FD8364B5A88364B13447B81002322
:101098007B6100233B611FE03B695A1C3A61304A7F
:1010A800134493F83430BB80BB881B021AB23B69E7
:1010B800591C39612A490B4493F834301BB2134345
:1010C80019B27B895A1C7A811A4689B2264B23F8B1
:1010D80012107B6901337B61214BDB881A467B69DF
:1010E8009342D9DB1E4B5B8841F27672934200F340
:1010F800F08341F2707293420FDA41F2D832934290
:1011080000F3E78341F29532934231DA662B00F01F
:10111800E180672B00F0EF80DBE3144A1A44062ACB
:1011280000F2D78301A353F822F000BF5914000836
:10113800DB1800089B140008DB18000839160008A3
:10114800DB18000831170008D41200246F0A0024A5
:101158005B12002407130024D51200243133002425
:101168003433002477ECFFFF480A002490E8FFFF9F
:10117800A94A1A44432A00F2AC8301A353F822F087
:10118800BB12000899120008DB180008DB180008D9
:10119800DB180008DB180008DB180008DB1800085B
:1011A800DB180008DB180008DB180008DB1800084B
:1011B800DB180008DB180008DB180008DB1800083B
:1011C800DB180008DB180008DB180008DB1800082B
:1011D800DB180008DB180008DB180008DB1800081B
:1011E800DB180008DB180008DB18000821130008CA
:1011F80043130008DB180008DB1800086513000813
:1012080085130008A7130008C9130008EB1300088A
:10121800FD130008DB180008DB180008DB180008BD
:10122800DB18000895170008B7170008DF17000833
:101238003B180008DB180008DB180008971800089E
:10124800B9180008DB180008DB180008DB180008CC
:10125800DB180008DB180008DB180008DB1800089A
:10126800DB180008DB180008DB180008DB1800088A
:10127800DB180008DB180008DB180008DB1800087A
:10128800DB180008DB180008DB18000873170008D3
:10129800624B93F834307B817B891B021AB25F4B17
:1012A80093F835301BB213431BB29AB25C4B1A80C9
:1012B80010E35A4B93F834307B817B891B021AB2B6
:1012C800564B93F835301BB213431BB29AB2554BA9
:1012D8001A80FFE2514B93F834307B817B891B02E3
:1012E8001AB24E4B93F835301BB213431BB29AB265
:1012F8004D4B1A80EEE2494B93F834307B817B8961
:101308001B021AB2454B93F835301BB213431BB27C
:101318009AB2464B1A80DDE2404B93F834307B8119
:101328007B891B021AB23D4B93F835301BB213432D
:101338001BB29AB23E4B1A80CCE2384B93F8343049
:101348007B817B891B021AB2344B93F835301BB270
:1013580013431BB29AB2374B1A80BBE22F4B93F858
:1013680034307B817B891B021AB22C4B93F83530C1
:101378001BB213431BB29AB22F4B1A80274B93F818
:1013880034307B817B891B021AB2244B93F83530A9
:101398001BB213431BB29AB2284B1A809AE21F4B16
:1013A80093F834307B817B891B021AB21B4B93F86C
:1013B80035301BB213431BB29AB2214B1A8089E213
:1013C800164B93F834307B817B891B021AB2134B7E
:1013D80093F835301BB213431BB29AB2194B1A80DB
:1013E80078E2184B1A88164B1B88D31A9AB2164BF8
:1013F8001A806FE2094B93F834307B817B891B029A
:101408001AB2064B93F835301BB213431BB29AB28B
:101418000E4B1A805EE200BF6BECFFFF34330024F2
:10142800620A0024600A0024D2320024D432002444
:10143800F6320024F832002400330024FE3200245F
:101448000233002404330024063300240A33002422
:101458008B4B93F834307B817B891B021AB2884B03
:1014680093F835301BB213431BB29AB2854B1A80DE
:10147800834B93F836307B817B891B021AB2804BF1
:1014880093F837301BB213431BB29AB27E4B1A80C3
:1014980020E27B4BDB88062B69D0062B00F3C88043
:1014A800022B02D0042B21D0C2E0754B93F83430C4
:1014B8007B817B891B021AB2714B93F835301BB2C2
:1014C80013431BB29AB2714B1A806D4B93F83630A6
:1014D8007B817B891B021AB2694B93F837301BB2A8
:1014E80013431BB29AB26A4B1A80A1E0644B93F87B
:1014F80034307B817B891B021AB2614B93F83530FB
:101508001BB213431BB29AB2604B1A805C4B93F820
:1015180036307B817B891B021AB2594B93F83730DE
:101528001BB213431BB29AB2594B1A80544B93F80F
:1015380038307B817B891B021AB2514B93F83930C2
:101548001BB213431BB29AB2524B1A804C4B93F8FE
:101558003A307B817B891B021AB2494B93F83B30A6
:101568001BB213431BB29AB24B4B1A8060E0444B38
:1015780093F834307B817B891B021AB2404B93F875
:1015880035301BB213431BB29AB2404B1A803C4B06
:1015980093F836307B817B891B021AB2384B93F85B
:1015A80037301BB213431BB29AB2394B1A80344BF3
:1015B80093F838307B817B891B021AB2304B93F841
:1015C80039301BB213431BB29AB2324B1A802C4BE0
:1015D80093F83A307B817B891B021AB2284B93F827
:1015E8003B301BB213431BB29AB22B4B1A80244BCD
:1015F80093F83C307B817B891B021AB2204B93F80D
:101608003D301BB213431BB29AB2244B1A801C4BB9
:1016180093F83E307B817B891B021AB2184B93F8F2
:101628003F301BB213431BB29AB21D4B1A8000BF46
:10163800134BDB88022B02D0042B33D04AE1104B2A
:1016480093F834307B817B891B021AB20C4B93F8D8
:1016580035301BB213431BB29AB20E4B1A80084B9B
:1016680093F836307B817B891B021AB2044B93F8BE
:1016780037301BB213431BB29AB2074B1A8052E0A1
:10168800343300240E330024103300242233002482
:101698002433002426330024283300242A3300244A
:1016A8002C330024A24B93F834307B817B891B02B6
:1016B8001AB29F4B93F835301BB213431BB29AB240
:1016C8009C4B1A809A4B93F836307B817B891B029E
:1016D8001AB2974B93F837301BB213431BB29AB226
:1016E800954B1A80924B93F838307B817B891B028B
:1016F8001AB28F4B93F839301BB213431BB29AB20C
:101708008E4B1A808A4B93F83A307B817B891B0277
:101718001AB2874B93F83B301BB213431BB29AB2F1
:10172800874B1A8000BFD5E0814B93F834307B811A
:101738007B891B021AB27E4B93F835301BB21343D8
:101748001BB29AB27D4B1A80794B93F836307B8165
:101758007B891B021AB2764B93F837301BB21343BE
:101768001BB29AB2764B1A80B4E0714B93F83430BE
:101778007B817B891B021AB26D4B93F835301BB203
:1017880013431BB29AB26F4B1A80A3E0684B93F8CD
:1017980034307B817B891B021AB2654B93F8353054
:1017A8001BB213431BB29AB2674B1A8092E0604B8C
:1017B80093F834307B817B891B021AB25C4B93F817
:1017C80035301BB213431BB29AB2604B1A80604B80
:1017D80000221A807EE0564B93F834307B817B8957
:1017E8001B021AB2524B93F835301BB213431BB28B
:1017F8009AB2584B1A80574B1B8807EE903AF8EE6E
:10180800676A554B1B8807EE903AB8EE677AC6EEC2
:10181800877AC7ED007AD7ED007A9FED507A67EEA8
:10182800877AFCEEE77A17EE903A9AB2484B1A801C
:1018380050E03F4B93F834307B817B891B021AB20E
:101848003B4B93F835301BB213431BB29AB2444B4F
:101858001A80434B1B8807EE903AF8EE676A414BB3
:101868001B8807EE903AB8EE677AC6EE877AC7ED1E
:10187800007AD7ED007A9FED397A67EE877AFCEE29
:10188800E77A17EE903A9AB2314B1A8022E0284B49
:1018980093F834307B817B891B021AB2244B93F86E
:1018A80035301BB213431BB29AB22F4B1A8011E08A
:1018B8001F4B93F834307B817B891B021AB21C4B77
:1018C80093F835301BB213431BB29AB2274B1A80D8
:1018D80000E000BF264B01221A70264B00221A7026
:1018E80054E0134B9B881A4641F288339A4216D12A
:1018F80000237B610CE0204A7B69002122F8131049
:101908001E4A7B69134400221A707B6901337B618C
:101918007B69042BEFDD1A4B00221A8000E000BF20
:10192800134B01221A70134B00221A702EE000BFCD
:101938003433002426330024283300242A33002497
:101948002C3300242E3300241233002418330024AF
:101958001A330024143300241A00002400007A44A7
:10196800163300241C0000241E33002420330024D6
:101978006E0A002431330024441300243C1300244D
:1019880042130024064B00221A7000BF04E000BF77
:1019980002E000BF00E000BF00BF1837BD4680BDB1
:1019A8003133002480B500AF064B1B689AB241F270
:1019B8008833054905480BF029FB052003F088FB0F
:1019C80000BF80BD4C120024841200245C07002450
:1019D80080B500AF012280210C4806F0E9F901200A
:1019E80003F076FB0A4B1B689AB241F28833094927
:1019F80009480BF00BFB00228021044806F0D8F9B7
:101A0800012003F065FB00BF80BD00BF000C025839
:101A180054120024AC120024F007002490B583B0BF
:101A280000AF00237B607C68631C7B600221A648B2
:101A380006F0A6F903461A46A44B1A557C68631C9F
:101A48007B600121A04806F09BF903461A469F4B8C
:101A58001A557C68631C7B604FF400719C4806F043
:101A68008FF903461A46994B1A557C68631C7B60AC
:101A78004FF48071964806F083F903461A46934B53
:101A88001A557C68631C7B608021914806F078F9C0
:101A980003461A468D4B1A557C68631C7B604021AF
:101AA8008B4806F06DF903461A46884B1A557C6830
:101AB800631C7B602021864806F062F903461A46BB
:101AC800824B1A557C68631C7B604FF40041814847
:101AD80006F056F903461A467C4B1A557E4B0022EF
:101AE8001A807A4BDB799AB27B4B1B8813439AB2E4
:101AF800794B1A8006237B6010E0774B1B885B00CC
:101B08001AB272497B680B441B781BB213431BB291
:101B18009AB2714B1A807B68013B7B607B68002B13
:101B2800EBDA00237B607C68631C7B6001216B48D7
:101B380006F026F903461A46694B1A557C68631C59
:101B48007B600221654806F01BF903461A46644B80
:101B58001A557C68631C7B600421604806F010F904
:101B680003461A465E4B1A557C68631C7B60082145
:101B78005A4806F005F903461A46594B1A557C6827
:101B8800631C7B601021554806F0FAF803461A4694
:101B9800534B1A557C68631C7B6020214F4806F024
:101BA800EFF803461A464E4B1A557C68631C7B6057
:101BB80040214A4806F0E4F803461A46484B1A55AD
:101BC8007C68631C7B608021444806F0D9F8034692
:101BD8001A46434B1A55434B00221A80404BDB7977
:101BE8009AB2404B1B8813439AB23E4B1A80062385
:101BF8007B6010E03B4B1B885B001AB238497B685E
:101C08000B441B781BB213431BB29AB2354B1A8094
:101C18007B68013B7B607B68002BEBDA00237B60F1
:101C28007C68631C7B604FF400712C4806F0A8F8B0
:101C380003461A462C4B1A557C68631C7B604FF48C
:101C48008061264806F09CF803461A46264B1A552A
:101C5800264B00221A8000237B6013E0244A7B680D
:101C680032F81330002B05D0224A7B681344012236
:101C78001A7004E01F4A7B68134400221A707B68BC
:101C880001337B607B68042BE8DD184B00221A8047
:101C980004237B6010E0154B1B885B001AB21549C2
:101CA8007B680B441B781BB213431BB29AB20F4BD1
:101CB8001A807B68013B7B607B68002BEBDA00BFF6
:101CC80000BF0C37BD4690BD001002580C1300240D
:101CD8000004025800180258141300240014025873
:101CE8001813002420130024301300244213002466
:101CF800441300243C13002490B58FB000AF002398
:101D08007B6301233B630023FB623B1D00221A60B7
:101D18005A609A60DA601A615A619A610123FB80FD
:101D280000237B854FF000024FF00003C7E908232A
:101D38009F4B9A8B9F4B1A809F4B00221A807CE006
:101D48009E4803F0A9FE9D4B1B689B687B6301239B
:101D58003B63994B1B885B0038333B4433F8343C76
:101D68007B857B6B03F00403002B60D17B8D3A6B82
:101D780002FA03F33B63914B1B683A6BDA617B8D84
:101D88009B01FB628D4B1B68FA6A1A638B4803F050
:101D9800B9FD0A21894803F0B3FE874B1B8803F17C
:101DA8000E04864803F0A0FF0346854A42F8243013
:101DB800814B1B880E33824A52F8233007EE903A43
:101DC800F8EE677A7F4BC3ED007A7E4BD3ED007A4D
:101DD800B7EEE77A9FED706B27EE066B794BD3ED84
:101DE800007AB7EEE77A26EE076B764BD3ED007AEA
:101DF800B7EEE77A9FED6A5B27EE057B36EE077B49
:101E08009FED696B37EE467B87ED087B6A4B1B8835
:101E18000E3397ED087BFCEEC77B17EE902A91B244
:101E2800634A22F81310624B9A8B674B1A80624BF5
:101E38001B8801339AB2604B1A805F4B1B88012BB9
:101E48007FF67EAF614B1B88312B19D85F4B1B88FF
:101E580001339AB25D4B1A80554B998B5B4B1B88AB
:101E68001A465B4B43F82210584B1B881A46584BAE
:101E780053F82220574B1B681344564A136036E028
:101E8800524B00221A80534B1B68534AA2FB032370
:101E98001B0907EE903AB8EE677B504B83ED007B49
:101EA8004E4B93ED007BFCEEC77B17EE903A9AB24F
:101EB8004B4B1A804A4B1B8807EE903AF8EE677A2C
:101EC800B7EEE77AB2EE046B27EE065B454BD3ED2F
:101ED800007AB7EEE76A85EE067BFCEEC77B17EE65
:101EE800903A9AB2404B1A803A4B00221A603F4B04
:101EF8001B88B3F57A7F0ED23C4B1B881A462C4BB5
:101F0800998B3B4B23F81210384B1B8801339AB23C
:101F1800364B1A8002E0354B00221A80354B1B885D
:101F2800002B0FD0234B1B8842F2544293420CD90A
:101F3800254B1B8842F25342934206D82E4B01226E
:101F48001A8002E02C4B00221A802A4B1B88002B97
:101F580011D0294B1B88002B0DD0164B1B88C82B82
:101F680009D9194B1B88C72B05D8234B00221A8087
:101F7800204B00221A80214B1B88002B42D00D4B8E
:101F88001B88C72B41D8104B1B88C82B3DD91C4B2D
:101F980001221A8039E000BF5F196547F47CA73E2B
:101FA800166A4DF38E53CC3FE3A59BC420A852403C
:101FB800080A0024CE32002496330024C8040024E2
:101FC80084080024C8320024D03200247813002466
:101FD8007C130024BC3200241F85EB51C03200243E
:101FE800740A002400000024760A0024CC3200245D
:101FF800780A00247413002468130024761300243C
:102008006C130024104B00221A80104B1B88002BE5
:1020180015D00D4B1B88002B11D00D4B1B8842F29D
:10202800534293420BD80B4B1B8842F254429342C3
:1020380005D9054B00221A80044B00221A8000BFE4
:102048003C37BD4690BD00BF6C13002476130024B6
:10205800CE320024D032002480B582B000AF786040
:102068007B68002B06D001224FF48051064805F00A
:102078009FFE05E000224FF48051034805F098FECA
:1020880000BF0837BD4680BD0000025880B483B049
:1020980000AF7860054B00221A70054B01221A70B8
:1020A80000BF0C37BD465DF8047B70473133002410
:1020B8000813002480B584B000AF78600023FB606B
:1020C800134B1B88002B1BD0124B00221A80124B7B
:1020D80000221A80114B00221A80114B00221A800C
:1020E8000023FB6007E00F4AFB68002122F8131069
:1020F800FB680133FB60FB680B2BF4DD00F014F880
:10210800034B00221A8000BF1037BD4680BD00BFB8
:10211800D6320024D2320024D4320024620A0024A9
:10212800600A0024480A002480B400AF1A4B002239
:102138001A801A4B00221A80194B00221A80194B58
:1021480000221A80184B00221A80184B00221A808D
:10215800174B00221A80174B00221A80164B0022B8
:102168001A80164B00221A80154B00221A80154B34
:1021780000221A80144B00221A80144B00221A8065
:10218800134B00221A80134B00221A8000BFBD4651
:102198005DF8047B704700BFF6320024F832002453
:1021A800FA320024FC320024FE32002406330024D4
:1021B80000330024083300240C3300240A3300249D
:1021C800183300241A330024123300241C3300244B
:1021D8001E3300242033002480B586B000AF786019
:1021E80001233B617B68FB6000237B6127E0FB6880
:1021F8001B881A463B691340002B0DD0144A7B6993
:1022080052F83300124A7B69DB0013449B88012291
:10221800194605F0CDFD0CE00D4A7B6952F83300F4
:102228000B4A7B69DB0013449B880022194605F0A2
:10223800BFFD3B695B003B617B6901337B617B6967
:102248000B2BD4DD00BF00BF1837BD4680BD00BFD3
:1022580064F8000880B586B000AF786001233B6160
:102268007B68FB6000237B6126E0FB681A683B699A
:102278001340002B0DD0144A7B6952F83300124AE0
:102288007B69DB0013449B880122194605F090FD09
:102298000CE00D4A7B6952F833000B4A7B69DB007E
:1022A80013449B880022194605F082FD3B695B00B8
:1022B8003B617B6901337B617B690B2BD5DD00BFFB
:1022C80000BF1837BD4680BDC4F8000880B586B089
:1022D80000AF786001233B617B68FB6000237B6172
:1022E80026E0FB681A683B691340002B0DD0144A9E
:1022F8007B6952F83300124A7B69DB0013449B88E0
:102308000122194605F054FD0CE00D4A7B6952F88C
:1023180033000B4A7B69DB0013449B880022194673
:1023280005F046FD3B695B003B617B6901337B61DE
:102338007B69032BD5DD00BF00BF1837BD4680BDC4
:1023480024F9000880B586B000AF786001233B61AE
:102358007B68FB6000237B6126E0FB681A683B69A9
:102368001340002B0DD0144A7B6952F83300124AEF
:102378007B69DB0013449B880122194605F018FD90
:102388000CE00D4A7B6952F833000B4A7B69DB008D
:1023980013449B880022194605F00AFD3B695B003F
:1023A8003B617B6901337B617B69072BD5DD00BF0E
:1023B80000BF1837BD4680BD44F9000880B582B01B
:1023C80000AF7860B14B71221A70B04B00225A707E
:1023D800AE4B00229A7001224FF48051AC4805F0B0
:1023E800E7FC322002F074FE01224FF40061A84895
:1023F80005F0DEFC322002F06BFE00224FF4006193
:10240800A34805F0D5FC322002F062FE41F2883381
:1024180003229E499F4809F027FB01224FF40061DF
:102428009B4805F0C5FC322002F052FE974B712202
:102438001A70964B00225A70944B00229A7001220F
:102448004FF48051924805F0B3FC322002F040FE70
:1024580001224FF400618E4805F0AAFC322002F0F8
:1024680037FE00224FF40061894805F0A1FC3220B4
:1024780002F02EFE41F2883303228449854809F090
:10248800F3FA01224FF40061814805F091FC3220F3
:1024980002F01EFE7D4B18221A707F4B1B881B0A08
:1024A8009BB2DAB2794B5A707B4B1B88DAB2774B06
:1024B8009A7001224FF48051754805F079FC32205A
:1024C80002F006FE01224FF40061714805F070FC2D
:1024D800322002F0FDFD00224FF400616C4805F047
:1024E80067FC322002F0F4FD41F288330322674989
:1024F800684809F0B9FA01224FF40061644805F010
:1025080057FC322002F0E4FD604B18221A70624B2F
:102518001B881B0A9BB2DAB25C4B5A705E4B1B8855
:10252800DAB25A4B9A7001224FF40061584805F00C
:102538003FFC322002F0CCFD00224FF400615448E9
:1025480005F036FC322002F0C3FD41F28833032245
:102558004E49504809F088FA01224FF400614C486E
:1025680005F026FC322002F0B3FD484B19221A7000
:10257800464B00225A70454B00229A7001224FF4B4
:102588000061434805F014FC322002F0A1FD00224E
:102598004FF400613E4805F00BFC322002F098FD34
:1025A80041F28833032239493A4809F05DFA012299
:1025B8004FF40061364805F0FBFB322002F088FD3D
:1025C800324B19221A70344B5B881B0A9BB2DAB261
:1025D8002E4B5A70304B5B88DAB22C4B9A70012222
:1025E8004FF400612A4805F0E3FB322002F070FD49
:1025F80000224FF40061264805F0DAFB322002F091
:1026080067FD41F2883303222049224809F02CFA59
:1026180001224FF400611E4805F0CAFB322002F087
:1026280057FD1A4B19221A701B4B5B881B0A9BB269
:10263800DAB2164B5A70184B5B88DAB2134B9A70A1
:1026480001224FF40061124805F0B2FB322002F07B
:102658003FFD00224FF400610D4805F0A9FB322030
:1026680002F036FD41F2883303220849094809F08F
:10267800FBF901224FF40061054805F099FB32206F
:1026880002F026FD00BF0837BD4680BDFC120024BD
:10269800000402582C050024680A002480B582B082
:1026A80000AF7860B14B71221A70B04B00225A709B
:1026B800AE4B00229A7001224FF48051AC4805F0CD
:1026C80077FB322002F004FD01224FF40061A84894
:1026D80005F06EFB322002F0FBFC00224FF4006193
:1026E800A34805F065FB322002F0F2FC41F2883382
:1026F80003229E499F4809F0B7F901224FF400616F
:102708009B4805F055FB322002F0E2FC974B712202
:102718001A70964B00225A70944B00229A7001222C
:102728004FF48051924805F043FB322002F0D0FC70
:1027380001224FF400618E4805F03AFB322002F086
:10274800C7FC00224FF40061894805F031FB3220B4
:1027580002F0BEFC41F2883303228449854809F01F
:1027680083F901224FF40061814805F021FB3220F2
:1027780002F0AEFC7D4B19221A707F4B5B881B0A56
:102788009BB2DAB2794B5A707B4B5B88DAB2774BE3
:102798009A7001224FF48051754805F009FB3220E8
:1027A80002F096FC01224FF40061714805F000FB2D
:1027B800322002F08DFC00224FF400616C4805F0D5
:1027C800F7FA322002F084FC41F288330322674989
:1027D800684809F049F901224FF40061644805F09E
:1027E800E7FA322002F074FC604B19221A70624B2F
:1027F8005B881B0A9BB2DAB25C4B5A705E4B5B88F3
:10280800DAB25A4B9A7001224FF40061584805F029
:10281800CFFA322002F05CFC00224FF400615448E9
:1028280005F0C6FA322002F053FC41F28833032245
:102838004E49504809F018F901224FF400614C48FC
:1028480005F0B6FA322002F043FC484B18221A7001
:10285800464B00225A70454B00229A7001224FF4D1
:102868000061434805F0A4FA322002F031FC00224E
:102878004FF400613E4805F09BFA322002F028FC34
:1028880041F28833032239493A4809F0EDF8012228
:102898004FF40061364805F08BFA322002F018FC3C
:1028A800324B18221A70344B1B881B0A9BB2DAB2BF
:1028B8002E4B5A70304B1B88DAB22C4B9A7001227F
:1028C8004FF400612A4805F073FA322002F000FC48
:1028D80000224FF40061264805F06AFA322002F01F
:1028E800F7FB41F2883303222049224809F0BCF85B
:1028F80001224FF400611E4805F05AFA322002F016
:10290800E7FB1A4B18221A701B4B1B881B0A9BB239
:10291800DAB2164B5A70184B1B88DAB2134B9A70FE
:1029280001224FF40061124805F042FA322002F009
:10293800CFFB00224FF400610D4805F039FA322030
:1029480002F0C6FB41F2883303220849094809F01E
:102958008BF801224FF40061054805F029FA32206E
:1029680002F0B6FB00BF0837BD4680BDFC1200244C
:10297800000402582C050024680A002480B586B09B
:1029880000AF786001233B617B68FB6000237B61BB
:1029980026E0FB681A683B691340002B0DD0144AE7
:1029A8007B6952F83300124A7B69DB0013449B8829
:1029B8000122194605F0FCF90CE00D4A7B6952F832
:1029C80033000B4A7B69DB0013449B8800221946BD
:1029D80005F0EEF93B695B003B617B6901337B6184
:1029E8007B69072BD5DD00BF00BF1837BD4680BD0A
:1029F80084F9000880B586B002AF78600023FB81B7
:102A080001224FF400614A4805F0D2F90A2002F089
:102A18005FFB484B00221A70464B1A78464B1A70D7
:102A2800444B00225A70434B5A78434B5A70414BDF
:102A380000229A703F4B9A783F4B9A703D4B002288
:102A4800DA703C4BDA783C4BDA703A4B00221A7158
:102A5800384B1A79384B1A710023FB8112E0012296
:102A68000421364805F0A4F9052002F031FB0022C4
:102A78000421324805F09CF9052002F029FBFB8966
:102A88000133FB812E4B1B88FA899A42E7D3002237
:102A98004FF400612B4805F08BF90A2002F018FB6F
:102AA800254B60221A7041F2883300930523214A8E
:102AB8002149254809F0D4F901224FF40061214841
:102AC80005F076F90A2002F003FB1A4B1B799AB23B
:102AD8001E4B1A8001224FF400611A4805F068F96C
:102AE8000A2002F0F5FA00224FF40061154805F0BB
:102AF8005FF90A2002F0ECFA0F4B98221A704FF493
:102B0800FA73009305230B4A0B490F4809F0A8F9FB
:102B18000A2002F0DDFA01224FF40061094805F0AD
:102B280047F90A2002F0D4FA00BF1037BD4680BD2D
:102B380000140258DC320024D83200240004025861
:102B4800EA320024001002583C060024EC3200242B
:102B580080B584B002AF7860204B1B88002B39D039
:102B68001F4B00221A8001224FF400611D4805F016
:102B78001FF9322002F0ACFA00224FF40061194824
:102B880005F016F9322002F0A3FA41F288330093D7
:102B98000423154A1549164809F062F9322002F053
:102BA80097FA01224FF400610E4805F001F932202E
:102BB80002F08EFA0A4B1B881A460B4B1B781343FC
:102BC8001B021AB2084B5B781BB213431BB29AB2B2
:102BD800034B1A8000BF0837BD4680BDEE32002483
:102BE800F232002400100258E432002414000024B9
:102BF8003C06002480B584B002AF7860204B1B8867
:102C0800002B39D01F4B00221A8001224FF400619B
:102C18001D4805F0CDF8322002F05AFA00224FF490
:102C28000061194805F0C4F8322002F051FA41F267
:102C3800883300930423154A1549164809F010F9FA
:102C4800322002F045FA01224FF400610E4805F0E7
:102C5800AFF8322002F03CFA0A4B1B881A460B4B9D
:102C68001B7813431B021AB2084B5B781BB2134341
:102C78001BB29AB2034B1A8000BF0837BD4680BD0D
:102C8800F0320024F432002400100258E432002408
:102C9800140000243C06002480B584B000AF78609E
:102CA8007B68FB60FB681B68002B06DD00224FF485
:102CB8008071074805F07CF805E001224FF4807127
:102CC800034805F075F800BF1037BD4680BD00BF4A
:102CD8000014025880B500AF00220421834805F093
:102CE80067F800220821814805F062F800221021C7
:102CF8007E4805F05DF8002220217C4805F058F850
:102D080000224021794805F053F800224FF4005181
:102D1800774805F04DF800224FF48041744805F0DB
:102D280047F800224FF40041714805F041F80022AD
:102D38004FF480416F4805F03BF800224FF4004102
:102D48006C4805F035F8002201216B4805F030F891
:102D580000220221684805F02BF8002280216348F0
:102D680005F026F800224FF48071604805F020F83D
:102D780000224FF400715D4805F01AF800224FF464
:102D880080615A4805F014F800224FF40041574872
:102D980005F00EF800224FF48061584805F008F855
:102DA80000224FF40071524805F002F800224FF457
:102DB8008071534804F0FCFF01224FF480714D48A4
:102DC80004F0F6FF00224FF480414E4804F0F0FF73
:102DD80000224FF400414B4804F0EAFF002204218E
:102DE800454804F0E5FF00220821434804F0E0FFCD
:102DF80000221021404804F0DBFF002220213E4839
:102E080004F0D6FF002240213B4804F0D1FF002205
:102E18008021394804F0CCFF00224FF480713648F5
:102E280004F0C6FF00224021314804F0C1FF00220F
:102E380080212F4804F0BCFF00224FF480712C48F9
:102E480004F0B6FF00224FF400612D4804F0B0FFF3
:102E580000224FF480512A4804F0AAFF00220421DE
:102E6800264804F0A5FF00224FF40061214804F031
:102E78009FFF00224FF480511E4804F099FF002262
:102E88004FF400511B4804F093FF002208211D480D
:102E980004F08EFF002210211A4804F089FF002256
:102EA8004FF40071144804F083FF00224FF480614E
:102EB800114804F07DFF00224FF400610E4804F031
:102EC80077FF00224FF480510B4804F071FF002275
:102ED8004FF40051084804F06BFF00224FF4804182
:102EE800054804F065FF00BF80BD00BF0010025810
:102EF800000802580014025800180258000402582A
:102F080000000258000C025880B483B000AF4FF0A4
:102F180000037B604FF000033B601F4B5B8907EEAB
:102F2800903AF8EE677AC7ED017A1B4B1B881B4A6B
:102F3800A2FB03239B099BB207EE903AF8EEE77ACF
:102F4800C7ED007AD7ED017AB7EEE77A9FED106BFF
:102F580027EE067BFCEEC77B17EE903A9AB2104B31
:102F68001A800F4B1B8807EE903AB8EEE77AD7ED38
:102F7800007A67EE277AFCEEE77A17EE903A9AB273
:102F8800084B1A8000BF0C37BD465DF8047B7047BC
:102F980014AE47E17A14E63F080A0024D34D6210C4
:102FA8001E3300242033002480B586B000AF0023F0
:102FB8007B8100233B810023FB8000233B607B4B0C
:102FC8001B7B7B817B891B021AB2784B5B7B1BB214
:102FD80013431BB27B8157233B60744B1B78032B35
:102FE80002D0102B69D0DCE0704B5B883B816F4BC3
:102FF800DB88FB8000237B610FE07A6913465B0066
:1030080013449B006A4A1344FB60FB681B883A8997
:103018009A4208D07B6901337B613B68013B7A693E
:103028009A42EADB00E000BF3B68013B7A699A42BA
:1030380000F0B48000237B6100233B6134E0FB682F
:103048005B681B881B0A99B23B695A1C3A61C9B272
:10305800564A13440A461A73FB685B6819883B6929
:103068005A1C3A61C9B2514A13440A461A73FB689A
:103078009B68002B05D0FB689B68FA68526810466D
:103088009847FB680C33FB60FB681B88002B10D04B
:10309800FB681B8819463A897B69013313449942B6
:1030A80009D17B6901337B61FB887A699A42C6DB67
:1030B80074E000BF72E000BF70E03C4B9B883B812E
:1030C8003A4B1B89FB8000237B610FE07A6913462A
:1030D8005B0013449B00364A1344FB60FB681B8863
:1030E8003A899A4208D07B6901337B613B68013B8E
:1030F8007A699A42EADB00E000BF3B68013B7A69E3
:103108009A424DD000237B6100233B613DE03B693F
:103118005A1C3A61254A13441A7BFB685B6892B2D1
:103128001A80FB685B681A88FB685B68120292B2B7
:103138001A803B695A1C3A611C4A13441A7BFB6883
:103148005B68198892B2FB685B680A4392B21A807E
:10315800FB689B68002B05D0FB689B68FA6852687F
:1031680010469847FB680C33FB60FB681B88002BF4
:1031780010D0FB681B8819463A897B6901331344D0
:10318800994209D17B6901337B61FB887A699A424C
:10319800BDDB05E000BF03E000BF01E000BF00E0C9
:1031A80000BF00BF1837BD4680BD00BF34330024C0
:1031B8002000002480B584B000AF03460A46FB71A6
:1031C8001346BB710023FB600023FB600DE0BB7955
:1031D8005A1CBA711946194AFB6813440C331A78F9
:1031E800174B5A54FB680133FB60144B9B7A1A4601
:1031F800FB689342EBDB114B9B7A9BB203337B81D9
:103208007B8919460E4800F01FF803463B81BB79BD
:103218005A1CBA711A463B89D9B2094B99543B8951
:103228001B0A9AB2BB79D1B2054AD1547B890233C1
:10323800044A136000BF1037BD4680BD34330024F4
:10324800841200244C12002480B485B000AF78604A
:103258000B467B80FF23FB73FF23BB7310E07B6867
:103268005A1C7A601A78BB7B5340FB72FB7A0F4A70
:10327800D25CFB7B5340BB73FB7A0D4AD35CFB7378
:103288007B885A1E7A80002BE9D1FB7BBB81BB89E6
:103298001B021AB2BB7B1BB213431BB29BB218466C
:1032A8001437BD465DF8047B704700BFC4F90008B9
:1032B800C4FA000880B485B000AF78600B467B8004
:1032C8000023FB817B881C4A52F823107B887A688C
:1032D8000A44194941F823207B880D2B05D1174B47
:1032E8001B8801339AB2154B1A80144B1B880F2B7D
:1032F8001CD9124B00221A800023FB8110E0FB89A5
:103308000D4A52F82320FB8912090D4941F8232060
:10331800FB89094A002142F82310FB890133FB810C
:10332800FB890D2BEBD9074B01221A8000BF1437FC
:10333800BD465DF8047B7047840900249833002457
:1033480084080024040A002480B584B000AF7860A3
:103358007B68FB60FB681B68002B14D00C4B0022B9
:103368001A800C4B00221A800B4B00221A600B4B60
:1033780000221A800A4B00221A800A4B00221A8067
:10338800052001F0A5FE00BF1037BD4680BD00BF77
:103398005C13002452130024541300245A130024ED
:1033A800581300244E13002480B485B000AF786011
:1033B8007B68FB60FB681B68002B0BD0084B012265
:1033C8001A80084B00221A80074B00221A80074BEC
:1033D80000221A8000BF1437BD465DF8047B704791
:1033E800741300246A130024701300246813002443
:1033F80080B485B000AF78607B68FB60FB681B68B1
:10340800002B0BD0084B01221A80084B00221A808F
:10341800074B00221A80074B00221A8000BF14377E
:10342800BD465DF8047B7047761300246E130024B4
:10343800721300246C130024B0B5ADF6F87D00AF0C
:10344800FF2387F8F73F0023C7F8E83F0123C7F8B1
:10345800E43F0023C7F8E03FC84B07F57A641D46F0
:103468000FCD0FC495E8070084E807000023A7F8EC
:10347800DE3F0023A7F8F43F4FF000024FF00003AF
:1034880007F57D61C1E900234FF000024FF000030A
:1034980007F6C871C1E900230023A7F8F23F00230B
:1034A800C7F8EC3FB64B5B6903F40033002B1BD124
:1034B800BFF34F8F00BFBFF36F8F00BFB04B002229
:1034C800C3F85022BFF34F8F00BFBFF36F8F00BF09
:1034D800AB4B5B69AA4A43F400335361BFF34F8F88
:1034E80000BFBFF36F8F00E000BFA54B5B6903F41B
:1034F8008033002B43D1A24B0022C3F88420BFF3B2
:103508004F8F00BF9E4BD3F88030C7F8C43FD7F821
:10351800C43F5B0BC3F30E03C7F8C03FD7F8C43FE3
:10352800DB08C3F30903C7F8BC3FD7F8C03F5A010B
:1035380043F6E0731340D7F8BC2F92079049134322
:10354800C1F86032D7F8BC3F5A1EC7F8BC2F002B11
:10355800EBD1D7F8C03F5A1EC7F8C02F002BDDD1DA
:10356800BFF34F8F00BF864B5B69854A43F48033B6
:103578005361BFF34F8F00BFBFF36F8F00E000BFF1
:1035880001F014FD01F058F800F032FA00F0AAFA40
:1035980000F0E2FE00F040FE00F092FE00F0CAFCEF
:1035A80000F020FD00F0ECFA00F000FE00F046FC10
:1035B80000F0C4FD00F06CFD01227249724809F068
:1035C800B3FD01227149724809F0AEFD4FF4FA705B
:1035D80001F07EFD40F2FF7200216E4803F0EEF923
:1035E8004FF4FA7001F074FD6B4809F0AFF96B48BD
:1035F80009F0ACF9FFF76EFB01228021684804F05E
:10360800D7FB01220421664804F0D2FB01225D4960
:103618005D4809F089FD01225C495D4809F084FD97
:10362800FCF7D4FFFDF724FBFEF7F8F95D4B1B8888
:10363800632B0CD95B4B00221A8097F8F73F18468A
:10364800FEF70AFD97F8F73FDB4387F8F73F514845
:1036580002F022FA544B1B88002B05D140F2FF726E
:1036680000214C4803F0AAF94A4B1B689B68C7F82D
:10367800E83F0123C7F8E43F4B4B1B885B0003F688
:10368800F8733B4433F8583CA7F8DE3FD7F8E83FD7
:1036980003F00403002B3ED1B7F8DE3FD7F8E42F40
:1036A80002FA03F3C7F8E43F3A4B1B68D7F8E42F54
:1036B800DA61B7F8DE3F9B01C7F8E03F354B1B687E
:1036C800D7F8E02F1A63334802F01CF90A21314871
:1036D80002F016FA344B1B881C462E4802F004FBF5
:1036E8000346324A42F824302F4B1B881A462F4B88
:1036F80053F822302C4A128811461846FFF7DAFD93
:10370800294B1B885A1C91B2274A11800C2B02D9CD
:10371800254B00221A80264B1B88002B00F0DC80EA
:10372800234B00221A800023A7F8F43FCDE0B7F816
:10373800F43F032B44D8B7F8F43F1E4A52F823301D
:1037480007EE903AB8EE677A1B4BD3ED007A67EE36
:10375800277AB7EEE77A07F57D6383ED007BB7F844
:10376800F43F07F57D6292ED007BFCEEC77B17EE18
:10377800902A91B2114A22F81310A1E048F80008E3
:1037880000ED00E0581200245C07002459120024C0
:10379800F007002464040024C40600241007002451
:1037A800000C0258001300249A3300240409002452
:1037B800040A00248408002404000024080A0024C1
:1037C800B7F8F43F032B26D9B7F8F43F052B22D8D6
:1037D800B7F8F43F7A4A52F8233007EE903AB8EE39
:1037E800677A784BD3ED007A67EE277AB7EEE77AF7
:1037F80007F57D6383ED007BB7F8F43F07F57D623D
:1038080092ED007BFCEEC77B17EE902A91B26E4AD0
:1038180022F8131054E0B7F8F43F052B26D9B7F86F
:10382800F43F0B2B22D8B7F8F43F654A52F82330FF
:1038380007EE903AB8EE677A644BD3ED007A67EEFC
:10384800277AB7EEE77A07F57D6383ED007BB7F853
:10385800F43F07F57D6292ED007BFCEEC77B17EE27
:10386800902A91B2584A22F8131029E0B7F8F43F89
:103878000B2B25D9B7F8F43F0D2B21D8B7F8F43F17
:103888004F4A52F8233007EE903AB8EE677A4D4B1C
:10389800D3ED007A67EE277AB7EEE77A07F57D630E
:1038A80083ED007BB7F8F43F07F57D6292ED007B6E
:1038B800FCEEC77B17EE902A91B2434A22F8131008
:1038C800B7F8F43F0133A7F8F43FB7F8F43F0D2BEE
:1038D8007FF62DAFFFF718FBB7F8F23FB3F5FA6F95
:1038E8001DD2B7F8F23F0133A7F8F23FB7F8F22F2D
:1038F800354B198B07F6F873A3F6F87323F81210F3
:10390800B7F8F22F07F6F873A3F6F87333F8123006
:103918001A46D7F8EC3F1344C7F8EC3F24E00023DD
:10392800A7F8F23FD7F8EC3F294AA2FB0323DB09AB
:10393800A3F6C41307EE903AB8EE676B9FED1E5BD3
:1039480086EE057B07F6C87383ED007B07F6C87320
:1039580093ED007BFCEEC77B17EE903A9AB21D4BB5
:103968001A800023C7F8EC3FFEF7C6F91A4B1A88ED
:103978001A4B1A804FF48051194804F001FA034693
:103988009AB2154B1A80154B1B88002B0FD1124B7E
:103998001B88012B0BD1134B1B8801339AB2114B97
:1039A8001A80114B1B8801339AB20F4B1A800F4BA8
:1039B80001221A702AE600BF9A9999999999D93FD4
:1039C8008408002408000024080A00240C000024AD
:1039D800D34D6210720A0024581300245A1300248D
:1039E800000C02585C1300244E130024700A0024B3
:1039F80080B59CB000AF07F124034C220021184683
:103A08000BF0E6FE3B1D2022002118460BF0E0FEDD
:103A1800022004F0E7F900233B60304BDB6A2F4AB1
:103A280023F00103D3622D4BDB6A03F001033B60F3
:103A38002B4B9B692A4A43F440439361284B9B696B
:103A480003F440433B603B6800BF254B9B6903F48C
:103A58000053B3F5005FF8D101237B624FF4803344
:103A6800BB620223BB640223FB6402233B6564231D
:103A78007B650223BB650223FB6502233B660823A3
:103A88007B660023BB660023FB6607F12403184608
:103A980004F0E2F90346002B01D000F0F9FD3F23C2
:103AA8007B600323BB600023FB6008233B6100238A
:103AB8007B610023BB610023FB6100233B623B1D4C
:103AC8000121184604F022FE0346002B01D000F025
:103AD800DFFD00BF7037BD4680BD00BF0004005841
:103AE8000048025880B5B0B000AF3B46C022002164
:103AF80018460BF06DFE214A4FF00003C7E900237A
:103B08000123BB601223FB6001233B6102237B611D
:103B18000223BB61C023FB6120233B624FF4C053E7
:103B28007B620823BB629623FB6202233B6302236A
:103B38007B630223BB630023FB634FF400733B6486
:103B480000237B644FF480533B664FF400337B665D
:103B58000223BB671023FB674FF48033C7F8A430F8
:103B68003B46184605F05EF90346002B01D000F0ED
:103B78008FFD00BFC037BD4680BD00BF03300800C1
:103B880080B58AB000AF07F11C0300221A605A60A2
:103B98009A603B4600221A605A609A60DA601A619D
:103BA8005A619A61954B964A1A60944B00225A6062
:103BB800924B00229A60914B0122DA608F4B0422CB
:103BC8001A618E4B00221A758C4B01225A758B4B49
:103BD8000E229A61894B00221A77884B00225A627A
:103BE800864B00229A62854B0222DA62834B0022BE
:103BF8001A63824B00225A63804B012283F83820D3
:103C08007E4B1022DA637D4B80221A647B4B0022A4
:103C18005A647A4B01229A64784801F0D1FC034631
:103C2800002B01D000F034FD0023FB6107F11C03D9
:103C38001946724802F026FF0346002B01D000F017
:103C480027FD704B3B6006237B600223BB6040F27C
:103C5800FF73FB6004233B6100237B6100237B76B9
:103C68003B461946654802F04DF80346002B01D043
:103C780000F00EFD644B3B600C237B603B4619460D
:103C88005E4802F03FF80346002B01D000F000FD2B
:103C98005E4B3B6012237B603B461946574802F057
:103CA80031F80346002B01D000F0F2FC584B3B6082
:103CB80018237B603B461946504802F023F8034618
:103CC800002B01D000F0E4FC524B3B604FF48073B2
:103CD8007B603B461946494802F014F80346002B1E
:103CE80001D000F0D5FC4C4B3B604FF483737B60F4
:103CF8003B461946414802F005F80346002B01D01F
:103D080000F0C6FC454B3B604FF486737B603B4636
:103D180019463A4801F0F6FF0346002B01D000F09F
:103D2800B7FC3F4B3B604FF489737B603B461946B9
:103D3800324801F0E7FF0346002B01D000F0A8FC51
:103D4800384B3B604FF48C737B603B4619462B48DD
:103D580001F0D8FF0346002B01D000F099FC324B4C
:103D68003B604FF400737B603B461946234801F0E3
:103D7800C9FF0346002B01D000F08AFC2B4B3B60A7
:103D880040F206237B603B4619461C4801F0BAFF07
:103D98000346002B01D000F07BFC254B3B604FF421
:103DA80003737B603B461946144801F0ABFF03469A
:103DB800002B01D000F06CFC1E4B3B6040F212233C
:103DC8007B603B4619460D4801F09CFF0346002BDB
:103DD80001D000F05DFC184B3B604FF406737B602C
:103DE8003B461946054801F08DFF0346002B01D0DC
:103DF80000F04EFC00BF2837BD4680BD6404002497
:103E08000020024000002143000052470040C03A11
:103E18000080F03E0000844B0000B84F0800900C72
:103E28008000501D0002B0252000F0140004002A74
:103E38000008302E1000C0100001802180B588B025
:103E480000AF3B1D00221A605A609A60DA601A615E
:103E58005A619A61344B354A1A60334B00229A6092
:103E6800314B0122DA60304B04221A612E4B0022BA
:103E78001A752D4B01225A752B4B02229A612A4B37
:103E880000221A77284B00225A62274B00229A6296
:103E9800254B0222DA62244B00221A63224B0022AD
:103EA8005A63214B012283F838201F4B1022DA6312
:103EB8001D4B80221A641C4B00225A641A4B0122A3
:103EC8009A64194801F07CFB0346002B01D000F0EE
:103ED800DFFB01237B600623BB600223FB6040F20B
:103EE800FF733B6104237B610023BB6100237B7765
:103EF8003B1D19460C4801F005FF0346002B01D075
:103F080000F0C6FB0A4B7B600C23BB603B1D1946C7
:103F1800054801F0F7FE0346002B01D000F0B8FB7E
:103F280000BF2037BD4680BDC80400240060025889
:103F38000200300480B500AF284B294A1A60274B8D
:103F48004FF480025A60254B00229A60234B0722C7
:103F5800DA60224B4FF000721A61204B00225A613E
:103F68001E4B4FF080629A611C4B4FF0E042DA61C1
:103F78001A4B00221A62194B00225A62174B002270
:103F88009A62164B0022DA62144B4FF080425A6351
:103F9800124B00229A63114B0022DA630F4B002266
:103FA8001A640E4B00225A640C4B00229A640B4B85
:103FB8000022DA64094B00221A65084B00225A6570
:103FC800064B00229A65054807F02AFC0346002B99
:103FD80001D000F05DFB00BF80BD00BF2C050024B0
:103FE8000038004080B500AF274B284A1A60264B9E
:103FF8004FF480025A60244B00229A60224B072219
:10400800DA60214B00221A611F4B00225A611E4BB5
:104018004FF080629A611C4B4FF0C042DA611A4B34
:1040280000221A62184B00225A62174B00229A6229
:10403800154B0022DA62144B4FF080425A63124B40
:1040480000229A63104B0022DA630F4B00221A6495
:104058000D4B00225A640C4B00229A640A4B002232
:10406800DA64094B00221A65074B00225A65064B91
:1040780000229A65044807F0D3FB0346002B01D0C1
:1040880000F006FB00BF80BDB4050024003C0040E2
:1040980080B500AF274B284A1A60264B4FF48002A0
:1040A8005A60244B00229A60224B0722DA60214B87
:1040B80000221A611F4B00225A611E4B4FF080628A
:1040C8009A611C4B4FF0C042DA611A4B00221A6207
:1040D800184B00225A62174B00229A62154B002295
:1040E800DA62144B4FF080425A63124B00229A63F3
:1040F800104B0022DA630F4B00221A640D4B00228A
:104108005A640C4B00229A640A4B0022DA64094B69
:1041180000221A65074B00225A65064B00229A6551
:10412800044807F07DFB0346002B01D000F0B0FAED
:1041380000BF80BD3C0600240034014080B584B037
:1041480000AF3B1D00221A605A609A60154B164A50
:104158001A60144B4FF47A725A60124B00229A601C
:10416800104B4FF47A72DA600E4B00229A610D48B8
:1041780008F095FB0346002B01D000F089FA0023D4
:104188007B600023FB603B1D1946064808F042FE91
:104198000346002B01D000F07BFA00BF1037BD4664
:1041A80080BD00BFC40600240010004080B584B064
:1041B80000AF3B1D00221A605A609A60144B154AE2
:1041C8001A60134B4FF47A725A60114B00229A60AE
:1041D8000F4B0A22DA600E4B00229A610C4808F055
:1041E8005EFB0346002B01D000F052FA00237B60EF
:1041F8000023FB603B1D1946054808F00BFE0346EB
:10420800002B01D000F044FA00BF1037BD4680BD36
:10421800100700240014004080B500AF264B274A41
:104228001A60254B4FF416525A60234B00229A60AD
:10423800214B0022DA60204B00221A611E4B0C220F
:104248005A611D4B00229A611B4B0022DA611A4BFE
:1042580000221A62184B00225A62174B30229A62C7
:10426800154B4FF48052DA63134B4FF400521A6423
:10427800114808F07BFE0346002B01D000F008FA35
:1042880000210D480BF0D9F90346002B01D000F0AE
:10429800FFF9002108480BF00EFA0346002B01D065
:1042A80000F0F6F904480BF08FF90346002B01D013
:1042B80000F0EEF900BF80BD5C070024001001404B
:1042C80080B500AF224B234A1A60214B4FF4165297
:1042D8005A601F4B00229A601D4B0022DA601C4B6B
:1042E80000221A611A4B0C225A61194B00229A615A
:1042F800174B0022DA61164B00221A62144B002277
:104308005A62134B00229A62114808F02FFE0346A6
:10431800002B01D000F0BCF900210D480BF08DF9FD
:104328000346002B01D000F0B3F9002108480BF038
:10433800C2F90346002B01D000F0AAF904480BF09B
:1043480043F90346002B01D000F0A2F900BF80BD5D
:10435800F00700240044004080B58EB000AF07F19C
:10436800240300221A605A609A60DA601A61AA4B24
:10437800D3F8E030A84A43F01003C2F8E030A64B67
:10438800D3F8E03003F010033B623B6AA24BD3F84A
:10439800E030A14A43F00403C2F8E0309E4BD3F862
:1043A800E03003F00403FB61FB699B4BD3F8E0307A
:1043B800994A43F02003C2F8E030974BD3F8E03035
:1043C80003F02003BB61BB69934BD3F8E030924AFA
:1043D80043F08003C2F8E0308F4BD3F8E03003F0AD
:1043E80080037B617B698C4BD3F8E0308A4A43F0C9
:1043F8000103C2F8E030884BD3F8E03003F0010342
:104408003B613B69844BD3F8E030834A43F00203B5
:10441800C2F8E030804BD3F8E03003F00203FB60D1
:10442800FB687D4BD3F8E0307B4A43F04003C2F889
:10443800E030794BD3F8E03003F04003BB60BB6851
:10444800754BD3F8E030744A43F00803C2F8E03003
:10445800714BD3F8E03003F008037B607B680022DF
:1044680048F6FC716D4803F0A3FC00224EF2C031FF
:104478006B4803F09DFC01224FF48071694803F0FA
:1044880097FC002241F60441674803F091FC0022A2
:104498004FF47841634803F08BFC002247F6FF7124
:1044A800624803F085FC00224CF29C11604803F03E
:1044B8007FFC00224FF4C8515E4803F079FC48F6AF
:1044C800FC737B620123BB620023FB6200233B6316
:1044D80007F124031946514803F0A2FA4EF2C033FB
:1044E8007B620123BB620023FB6200233B6307F16D
:1044F800240319464A4803F093FA40F2FF637B62AB
:104508000023BB620023FB6207F1240319464548D8
:1045180003F086FA4FF479437B620123BB620023E0
:10452800FB6200233B6307F1240319463D4803F06F
:1045380077FA41F604437B620123BB620023FB62E6
:1045480000233B6307F124031946374803F068FA50
:1045580047F6FF737B620123BB620023FB620023E3
:104568003B6307F124031946304803F059FA4CF22B
:104578009C137B620123BB620023FB6200233B6325
:1045880007F1240319462A4803F04AFA4FF47853EE
:104598007B620023BB620023FB6207F124031946F8
:1045A800234803F03DFA4FF4C8537B620123BB62F2
:1045B8000023FB6200233B6307F1240319461D48CF
:1045C80003F02EFA4FF400437B620023BB62002302
:1045D800FB6207F124031946144803F021FA4FF44B
:1045E80078737B620023BB620023FB6207F124031C
:1045F80019460D4803F014FA03237B620023BB62BB
:104608000023FB6207F124031946044803F008FA63
:1046180000BF3837BD4680BD00440258001002581C
:1046280000080258001402580004025800180258E2
:10463800000C02580000025880B584B000AF3B4619
:1046480000221A605A609A60DA6002F009FC0123BD
:104658003B7000237B7000237B601F233B72872302
:104668007B720023BB720023FB7201233B7301237F
:104678007B730023BB730023FB733B46184602F091
:1046880027FC042002F004FC00BF1037BD4680BDA3
:1046980080B400AF72B600BFFEE7000080B483B0FC
:1046A80000AF0A4BD3F8F430084A43F00203C2F8CB
:1046B800F430064BD3F8F43003F002037B607B68D8
:1046C80000BF0C37BD465DF8047B704700440258B4
:1046D80080B58EB000AF786007F1240300221A601D
:1046E8005A609A60DA601A617B681B684B4A934289
:1046F80060D14B4BD3F8D830494A43F02003C2F875
:10470800D830474BD3F8D83003F020033B623B6ADC
:10471800434BD3F8E030424A43F00403C2F8E03098
:104728003F4BD3F8E03003F00403FB61FB693C4BDB
:10473800D3F8E0303A4A43F00103C2F8E030384B8E
:10474800D3F8E03003F00103BB61BB69344BD3F805
:10475800E030334A43F00203C2F8E030304BD3F87C
:10476800E03003F002037B617B6933237B62032320
:10477800BB620023FB6207F124031946294803F0B2
:104788004FF9FF237B620323BB620023FB6207F11F
:1047980024031946244803F043F903237B620323C7
:1047A800BB620023FB6207F1240319461F4803F08C
:1047B80037F92EE07B681B681D4A934229D1184BB4
:1047C800D3F8E030164A43F08073C2F8E030144B57
:1047D800D3F8E03003F080733B613B69104BD3F8AA
:1047E800E0300F4A43F00403C2F8E0300C4BD3F832
:1047F800E03003F00403FB60FB684FF080614FF08A
:10480800806000F095FC4FF000614FF0006000F010
:104818008FFC00BF3837BD4680BD00BF0020024076
:1048280000440258000802580000025800040258C8
:104838000060025880B58EB000AF786007F124039D
:1048480000221A605A609A60DA601A617B681B68F5
:10485800534A934237D1534BD3F8E830514A43F483
:104868008043C2F8E8304F4BD3F8E83003F4804374
:104878003B623B6A4B4BD3F8E0304A4A43F00203B1
:10488800C2F8E030474BD3F8E03003F00203FB6195
:10489800FB694FF460437B620223BB620023FB6227
:1048A80000233B6305237B6307F1240319463E4835
:1048B80003F0B6F800220021242002F09CFA2420FC
:1048C80002F0B3FA68E07B681B68384A93422FD13C
:1048D800344BD3F8E830334A43F40043C2F8E830A5
:1048E800304BD3F8E83003F40043BB61BB692D4B70
:1048F800D3F8E0302B4A43F00403C2F8E030294BE8
:10490800D3F8E03003F004037B617B694FF4E05394
:104918007B620223BB620023FB6200233B63062306
:104928007B6307F124031946214803F079F833E043
:104938007B681B681F4A93422ED11A4BD3F8F0307C
:10494800184A43F40053C2F8F030164BD3F8F0304D
:1049580003F400533B613B69124BD3F8E030114A32
:1049680043F01003C2F8E0300E4BD3F8E03003F008
:104978001003FB60FB684FF4E0437B620223BB62D9
:104988000023FB6200233B6305237B6307F12403B9
:104998001946094803F044F800BF3837BD4680BDC2
:1049A800003800400044025800040258003C00400F
:1049B80000080258003401400010025880B584B045
:1049C80000AF78607B681B681D4A934217D11D4B66
:1049D800D3F8E8301B4A43F01003C2F8E830194B0B
:1049E800D3F8E83003F01003FB60FB6800220021D5
:1049F800362002F000FA362002F017FA1BE07B6836
:104A08001B68114A934216D10E4BD3F8E8300D4A71
:104A180043F02003C2F8E8300A4BD3F8E83003F03B
:104A28002003BB60BB6800220021372002F0E3F9B5
:104A3800372002F0FAF900BF1037BD4680BD00BF2D
:104A480000100040004402580014004080B58CB0AB
:104A580000AF786007F11C0300221A605A609A6060
:104A6800DA601A617B681B683C4A934237D13C4B39
:104A7800D3F8F0303A4A43F01003C2F8F030384B1C
:104A8800D3F8F03003F01003BB61BB69344BD3F8A3
:104A9800E030334A43F00103C2F8E030304BD3F83A
:104AA800E03003F001037B617B694FF4C063FB6175
:104AB80002233B6200237B620023BB620723FB6265
:104AC80007F11C031946274802F0AAFF002200211B
:104AD800252002F090F9252002F0A7F93AE07B683A
:104AE8001B68214A934235D11D4BD3F8E8301C4A44
:104AF80043F40033C2F8E830194BD3F8E83003F434
:104B080000333B613B69164BD3F8E030144A43F05D
:104B18000803C2F8E030124BD3F8E03003F0080382
:104B2800FB60FB686023FB6102233B6200237B621E
:104B38000023BB620723FB6207F11C0319460B48DD
:104B480002F06EFF00220021262002F054F92620F0
:104B580002F06BF900BF3037BD4680BD0010014040
:104B6800004402580000025800440040000C02585B
:104B780080B400AFFEE780B400AFFEE780B400AFBA
:104B8800FEE780B400AFFEE780B400AFFEE780B474
:104B980000AF00BFBD465DF8047B704780B400AF2E
:104BA80000BFBD465DF8047B704780B400AF00BF0E
:104BB800BD465DF8047B704780B500AF00F068FA29
:104BC80000BF80BD80B500AF024807F065FB00BF9D
:104BD80080BD00BF2C05002480B500AF094808F04F
:104BE800EFFA094B1B685A1C07490A60074A1178F3
:104BF800074AD154074B1B780133DAB2054B1A70B8
:104C080000BF80BD5C07002448120024581200240D
:104C18005C1200245A12002480B500AF094808F03D
:104C2800CFFA094B1B685A1C07490A60074A1178D2
:104C3800074AD154074B1B780133DAB2054B1A7077
:104C480000BF80BDF0070024501200245912002430
:104C5800D41200245B12002480B500AF294807F065
:104C6800EDFE294B1B8801339AB2274B1A80274B3C
:104C78001B78002B06D0264B1B8801339AB2244B95
:104C88001A8002E0224B00221A80224B1B78002B4C
:104C980006D0214B1B8801339AB21F4B1A8002E0C1
:104CA8001D4B00221A804FF400711C4803F068F86D
:104CB80003461A461A4B1A704FF48061174803F0DE
:104CC8005FF803461A46164B5A704FF400611348B2
:104CD80003F056F803461A46114B9A704FF4805168
:104CE8000E4803F04DF803461A460D4BDA704FF4A0
:104CF80000510A4803F044F803461A46084B1A7153
:104D080000BF80BDC406002400130024061300243D
:104D1800021300240713002404130024000C025873
:104D2800341300240000000080B500AF3A4807F0B3
:104D380085FE3A4B1B88022B0AD9394B1B685A1C33
:104D480037490A6013F1110F02D9354B00221A6056
:104D5800344B1B88002B10D0334B1B8801339AB27D
:104D6800314B1A80304B1B881A46D200D21AD20017
:104D7800D31A5B009AB22D4B1A802D4B1B88002B3F
:104D880010D02C4B1B8801339AB22A4B1A80294B1E
:104D98001B881A46D200D21AD200D31A5B009AB2E4
:104DA800254B1A80254B1B88B3F5FA6F26D31B4B6E
:104DB80000221A801A4B1B6807EE903AF8EE677AC1
:104DC800B7EEE77A9FED0E6B27EE066B9FED0E5B55
:104DD80086EE057B1A4B83ED007B194B93ED006B38
:104DE8009FED0B5B85EE067BFCEEC77B17EE903ADA
:104DF8009AB2144B1A80114B00221A8000BF80BD52
:104E08003D0AD7A3708D5B40000000000088C340B6
:104E180000000000006A0841100700245C13002409
:104E280054130024681300246A1300247013002408
:104E38006C1300246E130024721300244E130024F4
:104E4800601300245213002480B400AF374BD3F80A
:104E58008830364A43F47003C2F88830344B1B68F4
:104E680003F00F03062B07D8314B1B6823F00F0301
:104E78002F4A43F0070313602E4B1B682D4A43F05B
:104E8800010313602B4B00221A612A4B1A68294927
:104E9800294B13400B60264B1B6803F00803002BBB
:104EA80007D0234B1B6823F00F03214A43F0070365
:104EB8001360204B00229A611E4B0022DA611D4BC1
:104EC80000221A621B4B1D4A9A621A4B1C4ADA626C
:104ED800184B1C4A1A63174B00225A63154B194A80
:104EE8009A63144B0022DA63124B164A1A64114B68
:104EF80000225A640F4B1B680E4A23F48023136068
:104F08000C4B00221A66104B1A68104B1340B3F171
:104F1800005F02D20E4B01221A600E4B43F2D202FE
:104F28001A6000BFBD465DF8047B704700ED00E0E5
:104F380000200052004402587FEDF6EA0002020207
:104F48000000FF01800201010010005C0000FFFF6B
:104F58000881005100400052DFF834D0FFF774FF99
:104F68000C480D490D4A002302E0D458C4500433BC
:104F7800C4188C42F9D30A4A0A4C002301E0136092
:104F88000432A242FBD30AF02BFCFEF755FA704715
:104F98000000082400000024440400240CFC00083D
:104FA80048040024A0330024FEE7000080B582B046
:104FB80000AF032001F014FF03F05EFD0246154B1D
:104FC8009B691B0A03F00F031349CB5C03F01F0313
:104FD80022FA03F37B600F4B9B6903F00F030E4A21
:104FE800D35C03F01F037A6822FA03F30B4A1360B9
:104FF8000B4A7B6813600F2000F014F80346002B5F
:1050080001D0012302E0FFF749FB002318460837C7
:10501800BD4680BD00440258C4FB00083804002483
:105028003404002480B582B000AF7860154B1B783B
:10503800002B01D1012321E0134B1A68114B1B7877
:1050480019464FF47A73B3FBF1F3B2FBF3F3184646
:1050580001F0F9FE0346002B01D001230EE07B6826
:105068000F2B0AD8002279684FF0FF3001F0C3FEF9
:10507800064A7B681360002300E0012318460837BE
:10508800BD4680BD40040024340400243C040024B0
:1050980080B400AF064B1B781A46064B1B681344B6
:1050A800044A136000BFBD465DF8047B704700BF2B
:1050B800400400249C33002480B400AF034B1B68D9
:1050C8001846BD465DF8047B704700BF9C3300243A
:1050D80080B584B000AF7860FFF7EEFFB8607B68FA
:1050E800FB60FB68B3F1FF3F05D00A4B1B781A46FB
:1050F800FB681344FB6000BFFFF7DEFF0246BB6896
:10510800D31AFA689A42F7D800BF00BF1037BD46D5
:1051180080BD00BF4004002480B400AF034B1B686F
:105128001B0C1846BD465DF8047B70470010005CF8
:1051380080B483B000AF78603960074B5A687B68E9
:10514800DB431A4004493B6813434B6000BF0C37EC
:10515800BD465DF8047B70470004005880B483B0F6
:1051680000AF786039607B689B6823F47C123B68E9
:105178001A437B689A6000BF0C37BD465DF8047B14
:10518800704780B483B000AF786039607B689B68F3
:1051980023F0E0723B681A437B689A6000BF0C37C3
:1051A800BD465DF8047B704780B483B000AF78607B
:1051B8007B689B6803F0E07318460C37BD465DF8C2
:1051C800047B704780B487B000AFF860B9607A603C
:1051D8003B60FB6860331A46BB689B0013447B61E5
:1051E8007B691B6803F000427B6803F0F8413B6869
:1051F8000B431A437B691A6000BF1C37BD465DF834
:10520800047B704780B485B000AFF860B9607A60FD
:10521800FB681B6923F4F042BB6803F01F0379683D
:1052280001FA03F31A43FB681A6100BF1437BD463D
:105238005DF8047B704780B487B000AFF860B96050
:105248007A60FB6860331A46BB689B0013447B6135
:105258007B691B6823F000427B681A437B691A60EC
:1052680000BF1C37BD465DF8047B704780B483B02F
:1052780000AF78607B68DB6803F44063002B01D1E2
:10528800012300E0002318460C37BD465DF8047B77
:10529800704780B487B000AFF860B9607A60FB6887
:1052A80030331A46BB681B0A9B0003F00C031344F7
:1052B8007B617B691A68BB6803F01F031F2101FA31
:1052C80003F3DB431A407B689B0E03F01F01BB68A6
:1052D80003F01F0301FA03F31A437B691A6000BF46
:1052E8001C37BD465DF8047B704780B487B000AFBB
:1052F800F860B9607A60FB6814331A46BB685B0EC5
:105308009B0003F0040313447B617B691A68BB6844
:105318001B0D03F01F03072101FA03F3DB431A40B7
:10532800BB681B0D03F01F03796801FA03F31A43E6
:105338007B691A6000BF1C37BD465DF8047B704767
:1053480080B485B000AFF860B9607A60FB68D3F8C4
:10535800C020BB68C3F31303DB431A407B6803F028
:1053680018030849D940BB680B40C3F313031A4319
:10537800FB68C3F8C02000BF1437BD465DF8047B46
:10538800704700BFFFFF0F0080B483B000AF7860A4
:105398007B689B6803F01F0318460C37BD465DF811
:1053A800047B704780B483B000AF78607B689B68EB
:1053B80003F4404318460C37BD465DF8047B70473C
:1053C80080B483B000AF78607B689A68044B134060
:1053D8007A68936000BF0C37BD465DF8047B704760
:1053E800C0FFFF5F80B483B000AF78607B689B68C4
:1053F80003F00053B3F1005F01D1012300E0002363
:1054080018460C37BD465DF8047B704780B483B0FE
:1054180000AF78607B689A68054B134043F0805270
:105428007B689A6000BF0C37BD465DF8047B704707
:10543800C0FFFF6F80B483B000AF78607B689B6863
:1054480003F08053B3F1805F01D1012300E0002312
:1054580018460C37BD465DF8047B704780B483B0AE
:1054680000AF78607B689A68054B134043F00102EF
:105478007B689A6000BF0C37BD465DF8047B7047B7
:10548800C0FFFF7F80B483B000AF78607B689A6804
:10549800054B134043F002027B689A6000BF0C374B
:1054A800BD465DF8047B7047C0FFFF7F80B483B0C2
:1054B80000AF78607B689B6803F00103012B01D182
:1054C800012300E0002318460C37BD465DF8047B35
:1054D800704780B483B000AF78607B689B6803F046
:1054E8000203022B01D1012300E0002318460C37E8
:1054F800BD465DF8047B704780B483B000AF786028
:105508007B689A68054B134043F004027B689A60F5
:1055180000BF0C37BD465DF8047B7047C0FFFF7FB6
:1055280080B483B000AF78607B689A68054B1340FD
:1055380043F010027B689A6000BF0C37BD465DF8E7
:10554800047B7047C0FFFF7F80B483B000AF7860F2
:105558007B689B6803F00403042B01D1012300E05E
:10556800002318460C37BD465DF8047B70470000E1
:1055780080B483B000AF78607B689A68054B1340AD
:1055880043F020027B689A6000BF0C37BD465DF887
:10559800047B7047C0FFFF7F80B483B000AF7860A2
:1055A8007B689B6803F00803082B01D1012300E006
:1055B800002318460C37BD465DF8047B7047000091
:1055C80090B589B000AF78600023FB770023BB60FB
:1055D8007B68002B01D101238FE17B68DB68002BFE
:1055E8007B685B6D002B09D17868FFF771F87B68E1
:1055F80000229A657B68002283F850207B681B682C
:105608001846FFF7EFFE0346002B04D07B681B68A3
:105618001846FFF7D5FE7B681B681846FFF70AFF98
:105628000346002B14D17B681B681846FFF7EEFE73
:10563800874B1B689B09874AA2FB03239B090133FD
:10564800BB6002E0BB68013BBB60BB68002BF9D1C3
:105658007B681B681846FFF7EDFE0346002B0DD14B
:105668007B685B6D43F010027B685A657B689B6DB5
:1056780043F001027B689A650123FB777B681B680E
:105688001846FFF761FF78617B685B6D03F01003D4
:10569800002B40F029817B69002B40F025817B6835
:1056A8005B6D23F4817343F002027B685A657B6863
:1056B8001B681846FFF7FAFE0346002B36D17B68B5
:1056C8001B68654A934204D07B681B68634A93420F
:1056D8000ED16148FFF7EAFE04466048FFF7E6FE90
:1056E80003462343002B0CBF01230023DBB208E051
:1056F8005B48FFF7DBFE0346002B0CBF01230023AA
:10570800DBB2002B12D07B681B68534A934204D04B
:105718007B681B68514A934201D1524A00E0524AC1
:105728007B685B6819461046FFF718FDFFF7F4FC25
:10573800034641F20302934214D97B689B68102BFD
:1057480010D17B685B7D5A037B681B6B1A437B68AF
:105758009B681A437B681B7F1B04134343F00C03AD
:10576800BB610DE07B685B7D5A037B681B6B1A434A
:105778007B689B681A437B681B7F1B041343BB61D0
:105788007B681B7F012B06D17B681B6A013B5B048E
:10579800BA691343BB617B685B6A002B09D07B68DD
:1057A8005B6A03F478727B689B6A1343BA69134394
:1057B800BB617B681B68DA682C4B13407A681268F7
:1057C800B9690B43D3607B681B681846FFF7BCFEBA
:1057D80038617B681B681846FFF7DEFEF8603B6996
:1057E800002B5FD1FB68002B5CD17B681B7D9A0383
:1057F8007B68DB6A1343BB617B681B68DA681C4BF8
:1058080013407A681268B9690B43D3607B6893F8D0
:105818003830012B30D17B685B6A002B7B681B68B2
:105828001A69144B13407A68D26B013A11047A68EA
:10583800126C11437A68526C11437A68926C0A436D
:105848001A437B681B6842F001021A611CE000BF22
:1058580034040024632D3E0500200240002102404C
:1058680000600258002302400063025803C0F0FFA2
:10587800FCBFFFFF1EF800FC7B681B681A697B6889
:105888001B6822F001021A617B681B681B6923F000
:1058980070417B685A6B7B681B680A431A61786899
:1058A80000F026FF7B68DB68012B0CD17B681B6846
:1058B8001B6B23F00F017B689B695A1E7B681B6872
:1058C8000A431A6307E07B681B681A6B7B681B68CE
:1058D80022F00F021A637B685B6D23F0030343F029
:1058E80001027B685A6507E07B685B6D43F0100234
:1058F8007B685A650123FB77FB7F18462437BD4632
:1059080090BD00BF80B586B000AF78607B681B682B
:105918005C4A934204D07B681B685B4A934201D17E
:105928005A4B00E05A4B1846FFF72EFD38617B684A
:105938001B681846FFF708FE0346002B40F09A80C4
:105948007B6893F85030012B01D1022395E07B68E6
:10595800012283F85020786800F0E0FD0346FB75CB
:10596800FB7D002B40F081807B685A6D494B1340CA
:1059780043F480727B685A657B681B68424A93428D
:1059880002D07B681B6800E03E4B7A68126893423D
:1059980002D03B69002B05D17B685B6D23F4801234
:1059A8007B685A657B685B6D03F48053B3F5805F51
:1059B80006D17B689B6D23F006027B689A6502E03E
:1059C8007B6800229A657B681B681C221A607B68CA
:1059D800002283F850207B681B682B4A934202D030
:1059E8007B681B6800E0274B7A681268934208D0EE
:1059F8003B69002B05D03B69052B02D03B69092B7D
:105A080014D17B681B68DB6803F00073002B07D098
:105A18007B685B6D23F4405343F480527B685A657E
:105A28007B681B681846FFF767FD25E07B685B6DA0
:105A380043F480127B685A657B681B68124A93425C
:105A480002D07B681B6800E00E4BFB60FB68DB68DC
:105A580003F00073002B0FD07B685B6D23F4405379
:105A680043F480527B685A6506E07B68002283F81D
:105A7800502001E00223FB75FB7D18461837BD4610
:105A880080BD00BF002002400021024000230240E8
:105A980000630258FEF0FFFF80B584B000AF786065
:105AA8007B6893F85030012B01D1022321E07B68F9
:105AB800012283F850200321786800F073FC034624
:105AC800FB73FB7B002B0FD1786800F0B1FD034618
